:020000040800F2
:1000000070070020D5010008DD080008A9050008D8
:10001000D908000889040008070E00080000000045
:10002000000000000000000000000000490A000875
:100030008D04000800000000510900085D0B000855
:10004000EF010008EF010008EF010008EF010008D0
:10005000EF010008EF010008EF010008EF010008C0
:10006000EF010008EF010008EF010008EF010008B0
:10007000EF010008EF010008EF010008EF010008A0
:10008000EF010008EF010008EF010008EF01000890
:10009000EF010008EF010008EF010008EF01000880
:1000A000EF010008EF010008EF010008EF01000870
:1000B000EF010008C10B0008EF010008EF01000884
:1000C000EF010008EF010008EF010008EF01000850
:1000D000EF010008E50B0008EF010008EF01000840
:1000E000EF010008EF010008EF010008EF01000830
:1000F000EF010008EF010008EF010008EF01000820
:10010000EF010008EF010008EF010008EF0100080F
:10011000EF010008EF010008EF010008EF010008FF
:10012000EF010008EF010008EF010008EF010008EF
:1001300000F002F800F03FF80AA090E8000C8244BA
:100140008344AAF10107DA4501D100F034F8AFF297
:10015000090EBAE80F0013F0010F18BFFB1A43F0A5
:10016000010318472810000048100000103A24BF6F
:1001700078C878C1FAD8520724BF30C830C144BF0C
:1001800004680C607047000000230024002500264E
:10019000103A28BF78C1FBD8520728BF30C148BFEA
:1001A0000B607047642900F07780002070471FB50E
:1001B0001FBD10B510BD00F037F91146FFF7F7FF6E
:1001C00000F0A2FE00F055F903B4FFF7F2FF03BC04
:1001D00000F01BFE0948804709480047FEE7FEE79C
:1001E000FEE7FEE7FEE7FEE7FEE7FEE7FEE7FEE7E7
:1001F00004480549054A064B70470000610B00089A
:1002000031010008700100207007002070030020F9
:1002100070030020704700000FB4044910B503AA12
:10022000029800F0D3F810BC5DF814FB1800002011
:100230002DE9F0410E460446002020622046E16888
:10024000884730B3252805D0D4E901219047206A9A
:10025000401CF2E7E168204600278847050018D0D7
:10026000A5F14100192802D820354FF40067324625
:10027000294620462760FFF795FF40B1012804D0AA
:10028000F61D26F007060836D8E7361DD6E72846BD
:10029000DAE7206ABDE8F0812DE9F0410646002446
:1002A00010687529314616A510D0AFF300800028DC
:1002B00002DA404213A507E031688A0701D512A58A
:1002C00002E0490704D511A5012401E0AFF3008045
:1002D00000210A2206F1240709E0B0FBF2FCB0FB82
:1002E000F2F302FB1C00303078541846491C0028F9
:1002F000F3D123462A463046BDE8F04100F00CB861
:10030000000000002D0000002B0000002000000075
:1003100070477047704770472DE9F0470D46994682
:100320009246044600F124080168880604D5E06975
:1003300021F01001216000E00120A84201DD471BEF
:1003400000E00027A1697A1902EB0900081AA061F0
:100350002078C00602D42046AFF30080002608E0D3
:10036000D4E901211AF806009047206A401C761C47
:1003700020624E45F4DB2078C0060AD52046AFF354
:10038000008006E0D4E9012130209047206A401C1B
:100390002062381EA7F10107F4DC07E0D4E901214F
:1003A00018F805009047206A401C2062281EA5F11D
:1003B0000105F3DC2046AFF300802078000602D56B
:1003C0000220BDE8F0870120FBE70000074B70B575
:1003D0000D467B4400F011F80446284600F020F852
:1003E00010B14FF0FF3070BD204670BD170B0000FC
:1003F00001694A1C02610878704700B58FB0CDE9E9
:1004000001310021059105497944CDE903101146D8
:100410006846FFF70DFF0FB000BD0000E5FFFFFFCE
:10042000007B00F080007047754600F029F8AE466A
:1004300005006946534620F00700854618B020B5F0
:10044000FFF7D6FEBDE820404FF000064FF0000752
:100450004FF000084FF0000B21F00701AC46ACE86C
:10046000C009ACE8C009ACE8C009ACE8C0098D46D9
:1004700070470446AFF300802046FFF7A5FE00005A
:10048000004870470C01002000BFFEE770472DE9CF
:10049000F04102460025002600200023002400270A
:1004A00091F803C00CF00F0591F803C00CF0100C8C
:1004B000BCF1000F03D091F802C04CEA050591F899
:1004C00000C0BCF1000F31D0146800202BE04FF0C9
:1004D000010C0CFA00F3B1F800C00CEA03069E42CE
:1004E00020D183004FF00F0C0CFA03F7BC4305FA40
:1004F00003FC4CEA040491F803C0BCF1280F06D1B8
:100500004FF0010C0CFA00FCC2F814C00AE091F89C
:1005100003C0BCF1480F05D14FF0010C0CFA00FCF0
:10052000C2F810C0401C0828D1D31460B1F800C034
:10053000BCF1FF0F34DD546800202EE000F1080C00
:100540004FF0010808FA0CF3B1F800C00CEA0306FA
:100550009E4221D183004FF00F0C0CFA03F7BC43ED
:1005600005FA03FC4CEA040491F803C0BCF1280F1F
:1005700005D100F1080C08FA0CF8C2F8148091F8C3
:1005800003C0BCF1480F07D100F1080C4FF001087F
:1005900008FA0CF8C2F81080401C0828CED354602A
:1005A000BDE8F0810161704700BFFEE710B5002093
:1005B0000F4908600F48006820F070400D4908603E
:1005C0000846006840F04050086000200A49C1F821
:1005D000B401022000F064FC0120054908600220FB
:1005E00000F05EFC00200449C1F8B00110BD00001D
:1005F000B0812142000C01400080214208B5012158
:10060000082000F0A7F94FF44050ADF8000010208A
:100610008DF8030003208DF8020069460448FFF7B7
:1006200036FF4FF440510248FFF7BCFF08BD000001
:10063000000C014010B500200F4908600F48006809
:1006400020F070400D4908600846006840F04050B6
:10065000086001200A49C1F8B401022000F020FC22
:10066000012005490860022000F01AFC002004491E
:10067000C1F8B00110BD0000B0812142000C014062
:100680000080214270B5054600241748006820F01C
:100690007040154908600846006840F00040086056
:1006A000002616E0002011490860022000F0F8FB47
:1006B00001200F49C1F8B0016006040E0B487C38D8
:1006C000006808B1601CC4B2012000F0E9FB701C96
:1006D000C6B2082EE6DB15B9FFF7ACFF01E0FFF765
:1006E00065FF204670BD0000000C0140B081214232
:1006F0000080214270B504461848006820F0704020
:10070000164908600846006840F040500860002024
:100710001349086000251EE0E00920B101201049BE
:10072000091D086003E000200D49091D08606006EE
:10073000040E022000F0B4FB0120094908600220E9
:1007400000F0AEFB00200749C1F8B001022000F024
:10075000A7FB681CC5B2082DDEDB70BD000C014094
:10076000B08121420080214270B5044600F036F885
:100770005220FFF7BFFF00F07DF82046FFF7BAFFD9
:1007800000F078F800F02AF85320FFF7B3FF00F0EC
:1007900071F80020FFF776FF054600F045F80520C8
:1007A00000F058FB284670BD70B505460C4600F0B9
:1007B00015F85220FFF79EFF00F05CF82846FFF77F
:1007C00099FF00F057F82046FFF794FF00F052F829
:1007D00000F02AF80A2000F03DFB70BD10B50F486C
:1007E000006820F070400D4908600846006840F03D
:1007F0004050086001200A4908600A49C1F8B00168
:10080000042000F04DFB002005490860042000F0A2
:1008100047FB00200349C1F8B00110BD000C0140A6
:10082000B48121420080214210B50F48006820F0B9
:1008300070400D4908600846006840F0405008606C
:1008400000200A4908600A49C1F8B401042000F0F8
:1008500027FB0120054908600549C1F8B4010420BF
:1008600000F01EFB10BD0000000C0140B0812142D1
:100870000080214210B500241448006820F0704028
:10088000124908600846006840F0004008600120F6
:100890000F49086000F004FB01200E49C1F8B001C7
:1008A00000F0FEFA07E0601CC4B2FA2C03DDFFF78B
:1008B000BBFF012010BD0648803800680028F2D137
:1008C0000349091F086000BFF4E70000000C014065
:1008D000B48121420080214200BFFEE77047000042
:1008E00070B5002100230F22C47804B3154C24688E
:1008F00004F4E064C4F5E064210AC1F10403CA40D1
:10090000447804FA03F184781440214309010E4C21
:100910000678A155047804F01F050124AC40057841
:100920006D11AD0005F1E025C5F8004109E004783E
:1009300004F01F050124AC40044D0678761145F8FB
:10094000264070BD0CED00E000E400E080E100E036
:100950007047000029B1064A92690243044B9A612C
:1009600004E0034A92698243014B9A617047000098
:100970000010024030B500210022002400232D4D3C
:100980006D6805F00C0121B1042905D0082923D197
:1009900005E0294D056022E0274D05601FE0254D4B
:1009A0006D6805F47012234D6D6805F480340225DE
:1009B00005EB92421CB9214D554305600BE01D4DDE
:1009C0006D6805F400351DB11C4D5543056002E00E
:1009D000194D5543056002E0174D056000BF00BF8B
:1009E000144D6D6805F0F0010909154D6B5C056843
:1009F000DD4045600F4D6D6805F4E061090A104D5A
:100A00006B5C4568DD4085600A4D6D6805F460519A
:100A1000C90A0B4D6B5C4568DD40C560054D6D68CE
:100A200005F44041890B074D6B5CC568B5FBF3F5D8
:100A3000056130BD0010024000127A0000093D003F
:100A40001E0000202E000020704710B500F002F8B4
:100A500010BD00000CB500200190009033480068E4
:100A600040F480303149086000BF3048006800F42D
:100A7000003000900198401C0190009818B901982E
:100A8000B0F5A06FF1D12948006800F4003010B132
:100A90000120009001E0002000900098012843D13F
:100AA0002348006840F010002149086008460068AB
:100AB00020F0030008600846006840F0020008606B
:100AC0001A48406819494860084640684860084626
:100AD000406840F4806048600846406820F47C101C
:100AE00048600846406840F4E810486008460068DE
:100AF00040F08070086000BF0C48006800F0007093
:100B00000028F9D00948406820F0030007494860F0
:100B10000846406840F00200486000BF0348406853
:100B200000F00C000828F9D10CBD000000100240B4
:100B300000200240042808D14FF0E021096941F06B
:100B400004014FF0E022116107E04FF0E021096954
:100B500021F004014FF0E02211617047704700005E
:100B600010B51348006840F00100114908600846BC
:100B70004068104908400E494860084600680E4920
:100B800008400B4908600846006820F4802008608F
:100B90000846406820F4FE0048604FF41F0088605B
:100BA000FFF753FF4FF000600449086010BD0000DC
:100BB000001002400000FFF8FFFFF6FE08ED00E025
:100BC00010B50120034908700121034800F006F820
:100BD00010BD00003200002000040040CA43028221
:100BE0007047000010B540F225511D4800F04AF84A
:100BF00010B31B4800F002F9C4B21A48008800F490
:100C00000040C8B91748008800F4804060B10A2C41
:100C100003D000201349088020E01248008840F4E7
:100C200000401049088019E00D2C06D10D480088BD
:100C300040F480400B49088010E00A480088C0F367
:100C40000D0009490C5407480088401C05490880DC
:100C500008460088C72801DD0020088010BD00007C
:100C6000003801401C0000204400002021B182898E
:100C700042F40052828104E082894DF6FF731A40EB
:100C80008281704770B502460024002300250020B1
:100C900040F66A16B14200D100BFC1F3421501F01F
:100CA0001F03012606FA03F3012D02D19689334072
:100CB00006E0022D02D1168A334001E0968A3340C5
:100CC0000C12012606FA04F41688344013B10CB154
:100CD000012000E0002070BDF0B50346002400268E
:100CE0000025002040F66A17B94200D100BF18461F
:100CF000C1F3421401F01F06012707FA06F5012C83
:100D000001D10C3004E0022C01D1103000E014308D
:100D10001AB107682F43076002E00768AF43076016
:100D2000F0BD00002DE9F04786B005460E460024D0
:100D3000A24600BFA1460027B08900B100BF2F46E0
:100D40002C8A4CF6FF700440F08804432C82AC8956
:100D50004EF6F3100440B088318908437189084386
:100D60000443AC81AC8A4FF6FF400440B089044391
:100D7000AC8201A8FFF7FEFD1F48874202D1DDF8D3
:100D800010A001E0DDF80CA0A88900F4004040B1FB
:100D90000AEBCA0000EB0A1031684900B0FBF1F819
:100DA00007E00AEBCA0000EB0A1031688900B0FBCB
:100DB000F1F86420B8FBF0F004012009642101FB84
:100DC0001089A88900F4004040B1322000EBC9002E
:100DD000B0FBF1F000F00700044308E0322000EB24
:100DE00009106421B0FBF1F000F00F0004432C81E6
:100DF00006B0BDE8F0870000003801400146888851
:100E0000C0F30800704700BFFEE7014600BF70470F
:100E100010B56FF00400FFF78DFE0A4800680A491C
:100E2000B0FBF1F0094908700846007800EB40017A
:100E3000C1EBC0104FF6FF7101EAC0000449088001
:100E400010BD00000000002000127A0014000020F5
:100E5000160000200146114A12884A434FF0E02351
:100E60005A6100229A611A46126942F001021A611F
:100E700000BF4FF0E022106900F001021AB100F447
:100E80008032002AF5D04FF0E022126922F00102F0
:100E90004FF0E0231A6100229A617047160000208B
:100EA0000146114A12784A434FF0E0235A6100226A
:100EB0009A611A46126942F001021A6100BF4FF0AE
:100EC000E022106900F001021AB100F48032002A19
:100ED000F5D04FF0E022126922F001024FF0E0233A
:100EE0001A6100229A6170471400002000BF054A71
:100EF000128802F04002002AF9D0C2B2014B1B1D39
:100F00001A8070470038014000254FF4E13000F0AE
:100F1000EDF8FFF77DFFFFF771FB4EA0FFF77CF9BF
:100F2000C220FFF721FC0746394651A0FFF774F9AC
:100F3000C020FFF719FC0746394652A0FFF76CF9AD
:100F40005020FFF711FC0746394652A0FFF764F91D
:100F500001210020FFF728FC4FF4FA70FFF77AFF19
:100F600000BF0BE00A20FFF775FF1420FFF7FCFB22
:100F7000044604F0010000B102E06D1C642DF1DBB9
:100F800000BF04F0010018B14CA0FFF745F904E0E0
:100F90004CA0FFF741F900BFFEE75AE00121002015
:100FA000FFF702FC1420FFF7DFFB4949087015200A
:100FB000FFF7DAFB464948701620FFF7D5FB444996
:100FC00088701720FFF7D0FB4149C8701820FFF741
:100FD000CBFB3F4908711920FFF7C6FB3C4948711C
:100FE0001A20FFF7C1FB3A4988711B20FFF7BCFBB1
:100FF0003749C8711C20FFF7B7FB354908721D201F
:10100000FFF7B2FB324948721F20FFF7ADFB3049B2
:1010100088722020FFF7A8FB2D49C8720A469179F3
:10102000D07900F05DF82A4A117A507A00F058F829
:10103000274A917AD07A00F053F8064600BF25A0DF
:10104000FFF7EAF831461BA0FFF7E6F83220FFF77A
:1010500001FFA3E7BBB6D3ADCAB9D3C3766C3533B2
:101060006C3078BCA4B9E2B2E2BEE00D0A00000028
:101070005265766973696F6E2049443A2025640D84
:101080000A0000004465766963652049443A2025DA
:10109000640D0A005052455F52414E47455F434F31
:1010A0004E4649475F564353454C5F504552494F62
:1010B00044203D2025640D0A000000007265616433
:1010C000790D0A006E6F742072656164790000000A
:1010D0003400002064697374616E63652000000051
:1010E0000246CBB2104663F31F20704710B586B09E
:1010F0000446012144F20400FFF72CFC4FF4007079
:10110000ADF8140003208DF8160018208DF8170094
:1011100005A91C48FFF7BBF94FF48060ADF8140037
:1011200004208DF8170005A91648FFF7B0F925200F
:101130008DF8000003208DF801008DF802000120D9
:101140008DF803006846FFF7CBFB01940020ADF853
:101150000800ADF80A00ADF80C00ADF810000C2046
:10116000ADF80E0001A90848FFF7DCFD012240F2AE
:1011700025510548FFF7B0FD01210348FFF776FD33
:1011800006B010BD0008014000380140AC11000855
:1011900000000020340000006C010008E01100088D
:1011A000340000203C0700008801000800A24A0427
:1011B0000000000000000000010203040607080907
:1011C000000000000000000000000000000001021C
:1011D00003040102030406070809020406080000CC
:04000005080001D519
:00000001FF
