:020000040800F2
:1000000068070020D50100083D060008FD0400082F
:1000100039060008DD030008131300080000000083
:1000200000000000000000000000000001090008BE
:10003000E103000800000000C5060008150A0008DA
:10004000EF010008EF010008EF010008EF010008D0
:10005000EF010008EF010008EF010008EF010008C0
:10006000EF010008EF010008EF010008EF010008B0
:10007000EF010008EF010008EF010008EF010008A0
:10008000EF010008EF010008EF010008EF01000890
:10009000EF010008EF010008EF010008EF01000880
:1000A000EF010008EF010008EF010008EF01000870
:1000B000EF010008B90C0008D50C0008EF0100089A
:1000C000EF010008EF010008EF010008EF01000850
:1000D000EF010008F1100008EF010008EF0100082F
:1000E000EF010008EF010008EF010008EF01000830
:1000F000EF010008EF010008EF010008EF01000820
:10010000EF010008EF010008EF010008EF0100080F
:10011000EF010008EF010008EF010008EF010008FF
:10012000EF010008EF010008EF010008EF010008EF
:1001300000F002F800F03FF80AA090E8000C8244BA
:100140008344AAF10107DA4501D100F034F8AFF297
:10015000090EBAE80F0013F0010F18BFFB1A43F0A5
:10016000010318473014000050140000103A24BF57
:1001700078C878C1FAD8520724BF30C830C144BF0C
:1001800004680C607047000000230024002500264E
:10019000103A28BF78C1FBD8520728BF30C148BFEA
:1001A0000B607047632900F0AE80002070471FB5D8
:1001B0001FBD10B510BD00F0E1F81146FFF7F7FFC5
:1001C00001F002F900F0FFF803B4FFF7F2FF03BCFF
:1001D00001F0A1F80948804709480047FEE7FEE71B
:1001E000FEE7FEE7FEE7FEE7FEE7FEE7FEE7FEE7E7
:1001F00004480549054A064B70470000190A0008E3
:100200003101000868010020680700206803002011
:1002100068030020704700000FB4044910B503AA1A
:10022000029800F07DF810BC5DF814FB1800002067
:100230002DE9F0410E460446002020622046E16888
:10024000884730B3252805D0D4E901219047206A9A
:10025000401CF2E7E168204600278847050018D0D7
:10026000A5F14100192802D820354FF40067324625
:10027000294620462760FFF795FF40B1012804D0AA
:10028000F61D26F007060836D8E7361DD6E72846BD
:10029000DAE7206ABDE8F08170B50C460546012A10
:1002A00005D02878800600D5EA69002302E0012302
:1002B00005E05B1C934202D2E05C0028F9D1A869FA
:1002C000E618C01AA861286A184428622846AFF3C5
:1002D000008004E0D5E9012114F8010B9047B442F5
:1002E000F8D32846AFF3008070BD70477047704761
:1002F000704710B5436913B1AFF3008001E0FFF719
:10030000CBFF012010BD127800F124010A700022F9
:100310004A700122EDE711684FF0FF32E9E7000073
:10032000074B70B50D467B4400F011F80446284693
:1003300000F020F810B14FF0FF3070BD204670BDC6
:100340008310000001694A1C02610878704700B5FB
:100350008FB0CDE901310021059105497944CDE9FE
:10036000031011466846FFF763FF0FB000BD0000A1
:10037000E5FFFFFF007B00F080007047754600F04E
:1003800029F8AE4605006946534620F00700854629
:1003900018B020B5FFF72CFFBDE820404FF0000655
:1003A0004FF000074FF000084FF0000B21F007015D
:1003B000AC46ACE8C009ACE8C009ACE8C009ACE8A0
:1003C000C0098D4670470446AFF300802046FFF712
:1003D000FBFE0000004870470801002000BFFEE758
:1003E00070472DE9F0410246002500260020002339
:1003F0000024002791F803C00CF00F0591F803C00A
:100400000CF0100CBCF1000F03D091F802C04CEAC4
:10041000050591F800C0BCF1000F31D01468002030
:100420002BE04FF0010C0CFA00F3B1F800C00CEA1D
:1004300003069E4220D183004FF00F0C0CFA03F705
:10044000BC4305FA03FC4CEA040491F803C0BCF178
:10045000280F06D14FF0010C0CFA00FCC2F814C0B2
:100460000AE091F803C0BCF1480F05D14FF0010C30
:100470000CFA00FCC2F810C0401C0828D1D314604C
:10048000B1F800C0BCF1FF0F34DD546800202EE04D
:1004900000F1080C4FF0010808FA0CF3B1F800C0A5
:1004A0000CEA03069E4221D183004FF00F0C0CFA98
:1004B00003F7BC4305FA03FC4CEA040491F803C0BB
:1004C000BCF1280F05D100F1080C08FA0CF8C2F8AD
:1004D000148091F803C0BCF1480F07D100F1080C5B
:1004E0004FF0010808FA0CF8C2F81080401C0828E8
:1004F000CED35460BDE8F0810161704700BFFEE7D4
:1005000000BF0100A0F1010290B2FAD170470000D3
:1005100008B50121082000F0E7F84FF40060ADF8BD
:10052000000010208DF8030003208DF802006946BA
:100530001448FFF756FF4FF400611248FFF7DCFF45
:100540000220ADF8000010208DF8030003208DF884
:10055000020069460B48FFF744FF02210948FFF7F4
:10056000CBFF4FF48060ADF8000048208DF8030009
:1005700069460448FFF735FF4FF480610148FFF7F3
:10058000BBFF08BD000C014008B500200090012011
:10059000164908605020FFF7B3FF00201449C1F846
:1005A000AC0100231CE09DF80000401000900F48B3
:1005B0008438006820B99DF8000040F08000009069
:1005C00001200A49283908605020FFF799FF0020D0
:1005D0000749C1F884015020FFF792FF581CC3B2AD
:1005E000082BE0DB9DF8000008BD0000AC81214233
:1005F0000080214208B50121142000F075F8102078
:100600008DF8030003208DF802004FF48070ADF8E0
:10061000000069460648FFF7E4FE28208DF8030035
:100620004020ADF8000069460248FFF7DAFE08BD39
:10063000000801400010014000BFFEE770470000C5
:1006400070B5002100230F22C47804B3154C246830
:1006500004F4E064C4F5E064210AC1F10403CA4073
:10066000447804FA03F184781440214309010E4CC4
:100670000678A155047804F01F050124AC400578E4
:100680006D11AD0005F1E025C5F8004109E00478E1
:1006900004F01F050124AC40044D0678761145F89E
:1006A000264070BD0CED00E000E400E080E100E0D9
:1006B00002490143024A1160704700000000FA0538
:1006C0000CED00E07047000029B1064AD2690243F0
:1006D000044BDA6104E0034AD2698243014BDA61D8
:1006E000704700000010024029B1064A9269024397
:1006F000044B9A6104E0034A92698243014B9A6178
:10070000704700000010024030B500210022002494
:1007100000232D4D6D6805F00C0121B1042905D091
:10072000082923D105E0294D056022E0274D056009
:100730001FE0254D6D6805F47012234D6D6805F4BA
:100740008034022505EB92421CB9214D55430560CA
:100750000BE01D4D6D6805F400351DB11C4D554372
:10076000056002E0194D5543056002E0174D056034
:1007700000BF00BF144D6D6805F0F0010909154D6B
:100780006B5C0568DD4045600F4D6D6805F4E06108
:10079000090A104D6B5C4568DD4085600A4D6D6847
:1007A00005F46051C90A0B4D6B5C4568DD40C560BE
:1007B000054D6D6805F44041890B074D6B5CC568BC
:1007C000B5FBF3F5056130BD0010024000127A0060
:1007D00000093D001E0000202E00002000B589B059
:1007E00001210820FFF780FF01210420FFF76CFFA3
:1007F0004FF40070ADF8200028208DF8230003206E
:100800008DF8220008A92248FFF7EBFD4FF4007194
:100810001F48FFF771FE42F21070ADF81400472038
:10082000ADF810000020ADF81600ADF8120004A9D4
:10083000184800F00BFC0C20ADF804000020ADF8C7
:1008400006000120ADF808000020ADF80A000320E2
:10085000ADF80C0001A90F4800F02CFB01210D4858
:1008600000F007FB1E208DF81C0001208DF81D00F4
:1008700003208DF81E0001208DF81F0007A8FFF748
:10088000DFFE01221121034800F06AFB09B000BD20
:10089000000C01400008004010B50020154B1B78EB
:1008A00003F040032BB3144B1B68190E124B1B684B
:1008B000C3F30742D343DBB28B420BD151B90E4B8A
:1008C0001B88C3F307210C4B1A78D343DBB28B424E
:1008D00000D1084620B1074B1B7803F0800343B9D1
:1008E000044B1B7823F04003024C23700023034C7D
:1008F000237010BD34000020380000203C00002090
:10090000704710B500F002F810BD00000CB50020D3
:10091000019000903348006840F48030314908600D
:1009200000BF3048006800F4003000900198401C7F
:100930000190009818B90198B0F5A06FF1D129483D
:10094000006800F4003010B10120009001E00020A8
:1009500000900098012843D12348006840F010001F
:10096000214908600846006820F003000860084636
:10097000006840F0020008601A4840681949486061
:100980000846406848600846406840F48060486017
:100990000846406820F47C1048600846406840F4EF
:1009A000E81048600846006840F08070086000BFAA
:1009B0000C48006800F000700028F9D00948406831
:1009C00020F00300074948600846406840F00200F4
:1009D000486000BF0348406800F00C000828F9D1C7
:1009E0000CBD00000010024000200240042808D185
:1009F0004FF0E021096941F004014FF0E02211615C
:100A000007E04FF0E021096921F004014FF0E022F6
:100A1000116170477047000010B51348006840F03E
:100A200001001149086008464068104908400E4915
:100A30004860084600680E4908400B4908600846AF
:100A4000006820F4802008600846406820F4FE001A
:100A500048604FF41F008860FFF753FF4FF00060BD
:100A60000449086010BD0000001002400000FFF8BB
:100A7000FFFFF6FE08ED00E0F0B50C46154600223B
:100A80000021068C4FF6FE773E400684028B018CD7
:100A90004FF60C7632407E1C06EA03162E43324394
:100AA000104EB0420ED0104EB0420BD0B0F1804F7D
:100AB00008D00E4EB04205D00D4EB04202D00D4EC1
:100AC000B04206D14FF6FD76314044F00106314385
:100AD00005E04FF6F576314044F0010631430283DC
:100AE0000184F0BD002C01400034014000040040AE
:100AF00000080040000C0040F0B50C4615460022EE
:100B000000210026078C4FF6EF7C07EA0C070784CC
:100B1000028B018C4FF6FF7707EA041640F6FF4779
:100B20003A404FF6FF7707EA03373A434FF6FF772D
:100B300007EA05273A43114FB8420ED0104FB8428A
:100B40000BD0B0F1804F08D00E4FB84205D00E4FF9
:100B5000B84202D00D4FB84206D14FF6DF77394088
:100B600046F01007394305E04FF65F77394044F00F
:100B70001007394302830184F0BD0000002C0140BE
:100B8000003401400004004000080040000C004018
:100B9000F0B50C461546002200210026078C4FF6C2
:100BA000FF6C07EA0C070784828B018C4FF6FF77F6
:100BB00007EA04264FF60C773A404FF6FF7707EA2C
:100BC00003172F433A43114FB8420ED0104FB8428B
:100BD0000BD0B0F1804F08D00E4FB84205D00E4F69
:100BE000B84202D00D4FB84206D14FF6FF573940F8
:100BF00046F48077394305E04FF2FF57394044F41B
:100C00008077394382830184F0BD0000002C0140CD
:100C1000003401400004004000080040000C004087
:100C2000F0B50C461546002200210026078C4EF632
:100C3000FF7C07EA0C070784828B018C4FF6FF7755
:100C400007EA043640F6FF473A404FF6FF7707EAD7
:100C500005273A434FF6FF7707EA03373A43114F28
:100C6000B8420ED0104FB8420BD0B0F1804F08D030
:100C70000E4FB84205D00E4FB84202D00D4FB842C9
:100C800006D14DF6FF77394046F48057394305E0E9
:100C900047F6FF57394044F4805739438283018433
:100CA000F0BD0000002C0140003401400004004071
:100CB00000080040000C004010B5012003490870F6
:100CC0000121034800F0D2F810BD000032000020DE
:100CD0000004004010B501215E4800F0DAF8F8B1D8
:100CE0005D48007800F08000D0B15B48007820F0CB
:100CF0001000594908700846007800F00F0020B92C
:100D00000846007840F0400008705348007800F032
:100D10000F000E2805DA50480078401C4E49087034
:100D20000AE04D48007820F080004B4908700846E2
:100D3000007800F0F00008701021464800F0A9F893
:100D4000002810D04548006870B10221414800F0E9
:100D500041F900213F4800F04AF93F48007840F04F
:100D600010003D49087070E03A4800F08EF83C49A8
:100D700008800021374800F02DF93748007800F04E
:100D8000100000285BD03448007800F08000E8B301
:100D900033480088B0F5967F0DDD31480088B0F506
:100DA000487F08DA2F48006840002E49086008464E
:100DB0000068086043E02A480088B0F5AF6F0FDD97
:100DC00027480088B0F5E16F0ADA2648006840003D
:100DD000244908600846006840F0010008602EE0E1
:100DE0001F48008840F69801884228DD1C4800888A
:100DF00040F62821884222DA1B480078401C1A4914
:100E000008701548007800F0F00000E002E0124998
:100E1000087014E01248008841F2680188420EDD33
:100E20000F48008841F25C21884208DA0A480078BD
:100E300040F080000849087000200B4908700648FF
:100E4000007820F01000044908701121014800F0DA
:100E50000DF810BD0008004034000020248121421C
:100E600036000020380000203C000020CA430282E7
:100E7000704721B1028842F00102028004E002883A
:100E80004FF6FE731A40028070470146B1F84000E9
:100E9000704730B50246002000230024158A05EA79
:100EA0000103958905EA010413B10CB1012000E0AA
:100EB000002030BD70B505460C46244885420ED052
:100EC000234885420BD0B5F1804F08D02148854298
:100ED00005D02148854202D02048854200D100E05B
:100EE00000BF208850B92389A28861882846FFF76F
:100EF000C3FDE188284600F07CF825E0208804281E
:100F00000AD12389A28861882846FFF7F5FDE18888
:100F1000284600F077F817E0208808280AD12389AE
:100F2000A28861882846FFF733FEE188284600F052
:100F300076F809E02389A28861882846FFF770FEC9
:100F4000E188284600F074F870BD0000002C0140D4
:100F5000003401400004004000080040000C004044
:100F60001AB183890B43838102E083898B43838198
:100F7000704700007FB505460C461D208DF8000027
:100F800001208DF8010002208DF8020001208DF86B
:100F900003006846FFF754FB01210220FFF794FB92
:100FA000ADF80850ADF804400020ADF80A00ADF8E7
:100FB000060001A9064800F049F800210448FFF79F
:100FC00058FF012211460248FFF7CAFF7FBD00000B
:100FD000000400400A460021018C4DF6FF731940C1
:100FE0004FF6FF7303EA023319430184704781848B
:100FF0007047028B4FF6F3731A400283028B0A4349
:1010000002837047028B4FF2FF331A400283028B38
:101010004FF6FF7303EA01231A4302837047828B62
:101020004FF6F3731A408283828B0A4382837047A0
:10103000828B4FF2FF331A408283828B4FF6FF730D
:1010400003EA01231A4382837047000000220288CA
:101050001D4B98420ED01D4B98420BD0B0F1804FE3
:1010600008D01B4B984205D01A4B984202D01A4B1D
:10107000984204D14FF68F731A404B881A43174B8E
:10108000984207D0164B984204D04FF6FF431A40BF
:10109000CB881A4302808B8883850B8803850A4B93
:1010A00098420BD0094B984208D00E4B984205D07D
:1010B0000D4B984202D00D4B984201D10B7A03861A
:1010C0000123838270470000002C0140003401405E
:1010D0000004004000080040000C004000100040E8
:1010E000001400400040014000440140004801401D
:1010F00010B540F225511D4800F04AF810B31B48C6
:1011000000F002F9C4B21A48008800F40040C8B9DF
:101110001748008800F4804060B10A2C03D00020FA
:101120001349088020E01248008840F4004010492C
:10113000088019E00D2C06D10D48008840F480404D
:101140000B49088010E00A480088C0F30D000949E7
:101150000C5407480088401C054908800846008850
:10116000C72801DD0020088010BD000000380140C4
:101170001C0000204000002021B1828942F400526E
:10118000828104E082894DF6FF731A4082817047A4
:1011900070B50246002400230025002040F66A16A0
:1011A000B14200D100BFC1F3421501F01F03012677
:1011B00006FA03F3012D02D19689334006E0022D91
:1011C00002D1168A334001E0968A33400C12012680
:1011D00006FA04F41688344013B10CB1012000E083
:1011E000002070BDF0B50346002400260025002035
:1011F00040F66A17B94200D100BF1846C1F3421445
:1012000001F01F06012707FA06F5012C01D10C3069
:1012100004E0022C01D1103000E014301AB107684C
:101220002F43076002E00768AF430760F0BD00008E
:101230002DE9F04786B005460E460024A24600BFC1
:10124000A1460027B08900B100BF2F462C8A4CF67A
:10125000FF700440F08804432C82AC894EF6F310F2
:101260000440B08831890843718908430443AC8144
:10127000AC8A4FF6FF400440B0890443AC8201A819
:10128000FFF742FA1F48874202D1DDF810A001E0C3
:10129000DDF80CA0A88900F4004040B10AEBCA00B8
:1012A00000EB0A1031684900B0FBF1F807E00AEBE7
:1012B000CA0000EB0A1031688900B0FBF1F8642025
:1012C000B8FBF0F004012009642101FB1089A88912
:1012D00000F4004040B1322000EBC900B0FBF1F057
:1012E00000F00700044308E0322000EB09106421FD
:1012F000B0FBF1F000F00F0004432C8106B0BDE814
:10130000F08700000038014001468888C0F30800DB
:10131000704700BFFEE7014600BF704710B56FF091
:101320000400FFF763FB0A4800680A49B0FBF1F0CC
:10133000094908700846007800EB4001C1EBC01075
:101340004FF6FF7101EAC0000449088010BD00009B
:101350000000002000127A00140000201600002077
:101360000146114A12884A434FF0E0235A61002295
:101370009A611A46126942F001021A6100BF4FF0E9
:10138000E022106900F001021AB100F48032002A54
:10139000F5D04FF0E022126922F001024FF0E02375
:1013A0001A6100229A6170471600002000BF054AAA
:1013B000128802F04002002AF9D0C2B2014B1B1D74
:1013C0001A8070470038014000BF4FF4E13000F050
:1013D00091F84FF4A060FFF76BF9FFF79FFFFFF75D
:1013E00009F9FFF7FBF9FFF793F847214FF6FF7074
:1013F000FFF7C0FD36A0FEF70FFF4FF47A70FFF73E
:10140000AFFF4FF0300861E0FFF746FA0746FFF7FD
:10141000BBF805462FB3A82F18D006DC222F0FD01B
:10142000622F07D0902F17D113E0C22F05D0E02FE5
:1014300012D108E000BF31260EE000BF32260BE0DB
:1014400000BF332608E000BF352605E000BF342684
:1014500002E000BF362600BF00BF0020224908601E
:101460002DE045B3002420E0802020412840D0B169
:10147000082C17D2DFE804F004070A0D1616101323
:1014800000BF32260EE000BF33260BE000BF34263B
:1014900008E000BF312605E000BF352602E000BFAE
:1014A000362600BF00BF601CC4B2082CDCDB002065
:1014B0000D49086003E001200B49086030264645CD
:1014C00004D0314609A0FEF7A7FEB0469CE7000015
:1014D00061742B636F6E6130783030313538333062
:1014E00030413537390D0A00A001214225630D0A2C
:1014F0000000000010B586B00446012144F204004B
:10150000FFF7F2F84FF40070ADF8140003208DF8E7
:10151000160018208DF8170005A91C48FEF761FF7A
:101520004FF48060ADF8140004208DF8170005A971
:101530001648FEF756FF25208DF8000003208DF891
:1015400001008DF8020001208DF803006846FFF7C6
:1015500077F801940020ADF80800ADF80A00ADF866
:101560000C00ADF810000C20ADF80E0001A90848E1
:10157000FFF75EFE012240F225510548FFF732FEDB
:1015800001210348FFF7F8FD06B010BD0008014037
:1015900000380140B41500080000002040000000A1
:1015A0006C010008F4150008400000202807000026
:1015B0008801000800A24A040000000000000000AA
:1015C00001020304060708090000000000000000F3
:1015D00000000000000001020304010203040607EA
:1015E00008090204060800000000000000000000D6
:0415F00000000000F7
:04000005080001D519
:00000001FF
