:020000040800F2
:1000000060070020E5010008A11300083313000871
:100010009D13000813120008331A000800000000A6
:100020000000000000000000000000004115000872
:1000300017120008000000002914000855160008D7
:10004000FF010008FF010008FF010008FF01000890
:10005000FF010008FF010008FF010008FF01000880
:10006000FF010008FF010008FF010008FF01000870
:10007000FF010008FF010008FF010008FF01000860
:10008000FF010008FF010008FF010008FF01000850
:10009000FF010008FF010008FF010008FF01000840
:1000A000FF010008FF010008FF010008FF01000830
:1000B000FF010008B9160008FF010008FF01000851
:1000C000FF010008FF010008FF010008FF01000810
:1000D000FF01000811180008FF010008FF010008D7
:1000E000FF010008FF010008FF010008FF010008F0
:1000F000FF010008FF010008FF010008FF010008E0
:10010000FF010008FF010008FF010008FF010008CF
:10011000FF010008FF010008FF010008FF010008BF
:10012000FF010008FF010008FF010008FF010008AF
:1001300000F002F800F047F80AA090E8000C8244B2
:100140008344AAF10107DA4501D100F03CF8AFF28F
:10015000090EBAE80F0013F0010F18BFFB1A43F0A5
:10016000010318475421000074210000103A24BFF5
:1001700078C878C1FAD8520724BF30C830C144BF0C
:1001800004680C607047000000230024002500264E
:10019000103A28BF78C1FBD8520728BF30C148BFEA
:1001A0000B607047662902F03B80002070471FB546
:1001B00000F0F0FA04000020002101F0B3FDE0603F
:1001C0001FBD10B510BD00F0FDFB1146FFF7EFFF9E
:1001D00001F0CCFC00F01BFC03B4FFF7F2FF03BC02
:1001E00001F044FC0948804709480047FEE7FEE764
:1001F000FEE7FEE7FEE7FEE7FEE7FEE7FEE7FEE7D7
:1002000004480549054A064B704700005916000886
:100210003101000860010020600700206003002019
:1002200060030020704700000FB4044910B503AA12
:10023000029800F09DFA10BC5DF814FB1800002035
:100240002DE9F0474FF0000A89460446C0F820A087
:100250002046E1688847002876D0252806D0D4E9D2
:1002600001219047206A401C2062F1E7E1682046A6
:1002700000258847C4F81CA006460027C4F818A02B
:100280002A2E09D0304601F0EAFB38B304EB870888
:10029000303EC8F8186019E059F8041B204604EBFA
:1002A00087029161E1688847012F064618D1E0690D
:1002B000002820DA25F020051DE0D8F8180000EB12
:1002C000800006EB40003038C8F818002046E1688E
:1002D0008847064601F0C3FB0028EED1012F0AD063
:1002E0002E2E08D12046E16888477F1C0646022F43
:1002F00045F02005C4DBA069002803DA404245F040
:100300000105A061E80701D025F01005B6B1A6F1FE
:100310004100192802D8203645F400654A46314686
:10032000204625604D46FFF73DFF58B1012806D015
:10033000ED1D25F0070000F1080989E704E005F14B
:10034000040985E730468AE7206ABDE8F0877047F0
:1003500070477047704770472DE9FF4F0C461E46A7
:100360004FF0FF378BB0D2E90001DDF860800A90D2
:100370008A46C1F30A5505B93D46002108464FF0AB
:100380000000BAF1000F00F4400005DA00EB800035
:100390004FF4400101EA50004FEA9059B9F1010FC2
:1003A00000DDB9460A9850EA4A000ED044F61050D3
:1003B000A5F2FF3545432F14B8F1000F1ED075424A
:1003C000291E1EDDC9F100021CE0B8F1010F4FF03B
:1003D000000001D0302103E0F24305E02154401C2D
:1003E000B042FBDB30460022002121540B99C1F8BA
:1003F0000880C1E900200FB0BDE8F08FBD1B6D1C67
:10040000DEE74A4600DA694206A800F065FA06AB64
:1004100093E8070003AB83E8070050460A9900F011
:100420003DFB8DE80700A0F500501F3800900398B1
:10043000002D09DD42F21F014A46084403A903903A
:10044000684600F09CFD08E0A0F500504A461F38C1
:1004500003A90390684600F0A6FD8DE8070000049C
:10046000000C03D04FF0FF30410800E01046B8F117
:10047000000F03D00022009215461EE0751E05D421
:1004800000F08CF9303262556D1EF9D5B346012269
:10049000084302D000227F1C04E02078302801D1DC
:1004A00000227F1E002A099786D01DE0112D07DA51
:1004B00000F074F9303262556D1C50EA0102F5D13A
:1004C000084302D00098C8B10EE00021681E05E084
:1004D000235C625C63542254401E491C8142F7DB5A
:1004E000AB46A81B401E0990002004F80B000B9897
:1004F000099AC0F80880C0E9002B7CE711264FF06C
:10050000000859E72DE9F04F88460446D21D22F035
:10051000070191B0D1E90001CDE90A0101F08BFAA0
:1005200002460B98C00F01D02D2007E020688107FC
:1005300001D52B2002E0202101EAC000032A099006
:1005400001D0072A05DB03464146204600F084F926
:100550000BE12078800601D5E06900E00620B8F1C3
:10056000650F814606D0B8F1660F18D0B8F1670F55
:1005700070D131E00020B9F1110F009001DB11239F
:1005800001E009F101030AAA01A90CA8FFF7E4FEA2
:10059000DDE90C70002609F10105834647E00120E2
:1005A0004B4600904FF000470AAA01A90CA8FFF79C
:1005B000D3FEDDE90DB00C995D46002610B909F1B6
:1005C00001000D18B9EB050003D4C0F1FF3609F1A5
:1005D0000105A5EB09002BE0B9F1010F01DA4FF09D
:1005E00001090020B9F1110F0090484601DD1123E7
:1005F00000E003460AAA01A90CA8FFF7ADFEDDE959
:100600000C704D4600268346207800070AD4AB457F
:1006100000DA5D4601A8012D04DD411911F8011C25
:10062000302907D04F4502DA17F1040F04DA012010
:1006300082460FE06D1EEEE7002F02DCED1B3E440C
:1006400003E0781CA84200DD7D1CB81B00F1010A04
:100650004FF000472078000703D4AA4501DB4FF094
:10066000FF3A0021B7F1004F0DF143088DF8431018
:1006700024D002202B23002F01DA7F422D230A21D0
:10068000021EA0F1010000DC5FB197FBF1FC97FBBB
:10069000F1F201FB1C7C17460CF1300C08F801CD7F
:1006A000EEE7A8F1010003702188090501D5452175
:1006B00000E06521A0F1010800F8011C09980FA9CC
:1006C000A1EB0807FF1D00B10120411901EBEA7001
:1006D000A1693844081A401EA0612078C00602D4DF
:1006E0002046AFF30080099828B1D4E90121904752
:1006F000206A401C20622078C00622D52046AFF335
:1007000000801EE0002E04DBB34502DD01A8805D01
:1007100000E03020D4E901219047206A401C20628B
:10072000761CAAF101005FEA000A0AD100F032F853
:10073000C0680168405CD4E901219047206A401CF0
:100740002062281EA5F10105DCDC07E0D4E90121C7
:1007500018F8010B9047206A401C2062381EA7F150
:100760000107F3DC2046AFF30080032011B043E61D
:10077000074B70B50D467B4400F05BF804462846F5
:1007800000F018F910B14FF0FF3070BD204670BD79
:10079000D7130000004870471C01002030B5B0F1AD
:1007A0000A024FEA900E71F100034EEA817EB0EB2F
:1007B0000E0061EB91014FEA101E4EEA017E10EB34
:1007C0000E0041EB11114FEA102E4EEA016E10EBB4
:1007D0000E0041EB11214FEA104E4EEA014E10EB94
:1007E0000E0041EB1141401841F100014FEAD000E9
:1007F00040EA41704FEAD10110EB80054FEA8104D5
:1008000044EA907444EB01046D1944EB0404521B58
:10081000A3414FF0000348BF0A3200D530BD401C51
:1008200041F1000130BD000001694A1C02610878F5
:10083000704700B58FB0CDE9013100210591054920
:100840007944CDE9031011466846FFF7F9FC0FB073
:1008500000BD0000E5FFFFFF2DE9F0411F46044603
:1008600003260168072A01F4006004DB08B116A51D
:1008700005E016A503E008B115A500E015A521F0D7
:1008800010002060A069C01EA0610FB1401EA061D1
:100890002046AFF300804FB1D4E90121384690479C
:1008A000206A401C2062C01C206206E0206AFAE731
:1008B000D4E9012115F8010B9047761EF8D22046A5
:1008C000AFF30080BDE8F0814E414E006E616E00D6
:1008D000494E4600696E66002DE9F047814616468E
:1008E0008AB0334878440DC88DE80D00304878440C
:1008F000801C03AC0DC884E80D0041F69B30084411
:10090000372190FBF1F290FBF1F5A5F1800501FB99
:1009100012041B3C02D56442012000E00020DFF8F5
:1009200090A080460027FA44AAF1BE0A0DE0E00735
:1009300009D03246684607EB47010AEB810100F017
:1009400032FB8DE8070064107F1C002CEFD1184F9C
:100950007F44AC3F18E0E80714D007EB04100DF11A
:10096000180A90E80E008AE80E00C068F04201D133
:1009700098190890324606A903A800F014FB03ABAF
:1009800083E807006D10641C002DE4D132466946EF
:10099000B8F1000F03A802D000F0F1FA01E000F076
:1009A00002FBC9E90001C9F808200AB0BDE8F087D8
:1009B000B8190000007B00F08000704700487047C5
:1009C000FC0000207546FFF7F9FFAE4605006946BA
:1009D000534620F00700854618B020B5FFF710FCFD
:1009E000BDE820404FF000064FF000074FF0000830
:1009F0004FF0000B21F00701AC46ACE8C009ACE8B1
:100A0000C009ACE8C009ACE8C0098D46704704468F
:100A1000AFF300802046FFF7DFFB00004FF0013C02
:100A200050F8042B51F8043B9A4221D1A2EB0C035D
:100A3000934313EACC1317D150F8042B51F8043B1D
:100A40009A4215D1A2EB0C03934313EACC130BD1BA
:100A500050F8042B51F8043B9A4209D1A2EB0C0345
:100A6000934313EACC13DBD04FF00000704700BF74
:100A7000D01A01BAB1FA81F101F0180122FA01F09D
:100A8000CB40C1F12001DBB2C0B2C01A2CFA01F395
:100A9000D11A914311EAC311E6D170475FEA400CC5
:100AA00008BF91F0000F4FEA8C234FEAC12243EABE
:100AB00051514FEA1C5018BF00F5F0404FEA30008A
:100AC00018BF41F000415FEA6C5C00F02980BCF186
:100AD000FF3F08BF40F080407047130C06BF120470
:100AE0004FF0100C4FF0000C130E04BF12020CF16B
:100AF000080C130F04BF12010CF1040C930F04BF78
:100B000092000CF1020CD30F04BF52000CF1010C47
:100B100011464FF00002A0F11F00A0EB0C0070473F
:100B200011F0004F08BF704731F000413FF4D5AFDE
:100B30000B0C06BF09044FF0100C4FF0000C0B0E0D
:100B400004BF09020CF1080C0B0F04BF09010CF1E2
:100B5000040C8B0F04BF89000CF1020CCB0F04BFF7
:100B600049000CF1010CCCF12003A0EB0C0022FA9F
:100B700003F302FA0CF241EA030100F101007047AD
:100B800020F07F4C80EA030023F07F47ACEB0703A3
:100B900003F57C5300F0004003F1FF032DE9804989
:100BA0004FEA154B09B44FEA144325EA0B4E24EAE9
:100BB00003480FF2042606EB132749083E785FEA44
:100BC000320203FB0667C7F5000707FB06F64FEA8C
:100BD00054374FEAD64606F1020607FB066CCCF105
:100BE000005C4FEA1C472CEA074C07FB06F40CFBA1
:100BF00006F504EB15464FEA961634BF00204FF079
:100C000000404FEAD13706FB07FC4FEA1C4C0CFBB7
:100C10000BF7D21B03FB0CF761EB07010CFB0EF784
:100C2000B0EB074072EB17420CFB08F734BFA2EBA6
:100C30000742B2EB074261EB17414FEA0C444FEA1F
:100C4000910706FB07FC4FEA1C4C0CFB0BF7B0EBC3
:100C5000C74072EB573203FB0CF734BFA2EBC7421D
:100C6000B2EBC74261EB57310CFB0EF7B0EBC7009C
:100C700072EB57720CFB08F734BFA2EBC702B2EB62
:100C8000C70261EB5771039F4FEA816141EA9211FC
:100C900004EBCC044FEAD1374FEA826206FB07FC33
:100CA00042EA90124FEA80604FEA1C4C0CFB0BF7B3
:100CB000D21B03FB0CF761EB07010CFB0EF7B0EB4B
:100CC000074072EB17420CFB08F734BFA2EB074258
:100CD000B2EB074261EB17414FEA8C554FEA91079F
:100CE00004EB9C2406FB07FC4FEA1C4C0CFB0BF7A7
:100CF000B0EBC74072EB573203FB0CF734BFA2EBEB
:100D0000C742B2EBC74261EB57310CFB0EF7B0EBB9
:100D1000C70072EB57720CFB08F734BFA2EBC70297
:100D2000B2EBC70261EB577115EB4C254FEA8161BD
:100D300041EA92114FEA82624FEAD13742EA9012B9
:100D400006FB07FC44F100044FEA80604FEA1C4CAC
:100D50000CFB0BF7D21B03FB0CF761EB07010CFB41
:100D60000EF7B0EB074072EB17420CFB08F734BFED
:100D7000A2EB0742B2EB074261EB174115EB1C15E2
:100D80004FEA813141EA92414FEA823242EA90428F
:100D90004FEA80304FEA0C7644F1000448EA0343FE
:100DA0004EEA0B484FF0000EB2EB080C71EB030754
:100DB00024BF624639464EEB0E0E4FF0000B001872
:100DC000524149414BEB0B0BB2EB080C71EB0307A3
:100DD0007BF1000B24BF624639464EEB0E0E4FF0FE
:100DE000000B0018524149414BEB0B0BB2EB080CC6
:100DF00071EB03077BF1000B24BF624639464EEBD3
:100E00000E0E51EA020718BF46F0010616EB0E76E9
:100E100055F1000254F1000103D5BDE88901BDE898
:100E20000088BDE88901BDE80048B619524141EB90
:100E30000101A3F10103704780807F7E7D7C7B7A76
:100E40007978777676757473727171706F6E6E6D76
:100E50006C6C6B6A6A69686867666665646463631C
:100E600062616160605F5F5E5E5D5D5C5C5B5B5AA2
:100E70005A5959585857575656555555545453530F
:100E800052525251515050504F4F4F4E4E4D4D4D6A
:100E90004C4C4C4B4B4B4A4A4A49494948484847B5
:100EA00047474746464645454544444444434343F3
:100EB0004342424242414141002B26D4770021D097
:100EC0001CB54FEA370703B44FF010004FF0100184
:100ED0004FF000000FBCBDE810400BF1010BBBF15F
:100EE000010F08BF5FEA170722BF12F1010211F1DB
:100EF00001014FF0004143F1000300F0004043EADC
:100F000000007047F9D35708DAE746EA064613F1BE
:100F1000400F4FEA16461FDD13F1200FDFBF1643C7
:100F20000A46002120335B42C8D0C3F1200746EABD
:100F3000064602FA07F74FEA164646EA0706C3F1E5
:100F4000200722FA03F201FA07F721FA03F14FF022
:100F5000000342EA0702B1E746EA020646EA06460D
:100F60004FEA164646EA0106BCBF46EA0646360C7C
:100F70004FF000034FF000024FF000019EE72DE913
:100F8000C048934630B491E8380007C831EA400CB5
:100F900048BF34EA430C03D5FFF7F2FDFFF78CFF9F
:100FA000F0BCBDE800882DE9C048934630B491E814
:100FB000380007C810F0804F08BF13F0804F03D1EE
:100FC00000F005F8FFF778FFF0BCBDE8008820F0DE
:100FD0007F4780EA030023F07F4C07EB0C03A3F567
:100FE0007C5300F00040A3F1FE0392F0000F00F0EC
:100FF000B38095F0000F00F077802DE901494FEAAA
:1010000011404FEA144621EA004800FB06FC24EA9E
:10101000064708FB06F607FB08F800FB07F718EB86
:1010200006484CEB164C4FEA124B18EB07484FEAB8
:1010300015464CEB174022EA0B4E0BFB06FC25EA4B
:1010400006470EFB06F607FB0EFE0BFB07F71EEB33
:10105000064E4CEB164C4FF000061EEB074E4CEBC9
:10106000174B18EB0B0840F1000018EB0E0B58EB78
:10107000000840F100008F1A4FF000013CBFC94347
:10108000661B14BFB5EB040C00213CBFC943F61B23
:101090004FEA17444EEA8E0E27EA04454FEA1C47F2
:1010A00004FB07622CEA074C05FB07F70CFB05F66F
:1010B00004FB0CFC16EB074642EB174216EB0C4602
:1010C00042EB1C421BEB060658EB0202414146EA8A
:1010D0009E0601D5BDE80189B619524141EB0101D7
:1010E000A3F10103BDE801894FEA14454FEA114716
:1010F00024EA054621EA074C05FB07F406FB07F73F
:101100000CFB06F105FB0CFC11EB074144EB17440B
:101110004FEA124711EB0C4144EB1C4422EA074C06
:1011200005FB07F206FB07F70CFB06F605FB0CFCBC
:1011300016EB074642EB174216EB0C4642EB1C45FA
:101140006A1854F1000148BF7047B619524141EB8B
:101150000101A3F10103704795F0000F37D04FEA6A
:1011600011424FEA144721EA024624EA074C02FBE7
:1011700007F106FB07F70CFB06F402FB0CFC14EB73
:10118000074441EB17414FEA154714EB0C4441EB80
:101190001C4125EA074C02FB07F506FB07F70CFB91
:1011A00006F602FB0CFC16EB074645EB174516EB63
:1011B0000C4645EB1C42121951F1000148BF704723
:1011C000B619524141EB0101A3F1010370474FEA07
:1011D00014454FEA114724EA054621EA074C05FB6E
:1011E00007F106FB07F70CFB06F24FF0000605FBC4
:1011F0000CFC12EB074241EB174112EB0C4251EB96
:101200001C4148BF7047921841EB0101A3F1010353
:10121000704700BFFEE770472DE9F0410246002508
:101220000026002000230024002791F803C00CF0C2
:101230000F0591F803C00CF0100CBCF1000F03D0A7
:1012400091F802C04CEA050591F800C0BCF1000F0E
:1012500031D0146800202BE04FF0010C0CFA00F3A1
:10126000B1F800C00CEA03069E4220D183004FF083
:101270000F0C0CFA03F7BC4305FA03FC4CEA040418
:1012800091F803C0BCF1280F06D14FF0010C0CFA05
:1012900000FCC2F814C00AE091F803C0BCF1480F8A
:1012A00005D14FF0010C0CFA00FCC2F810C0401C34
:1012B0000828D1D31460B1F800C0BCF1FF0F34DDB1
:1012C000546800202EE000F1080C4FF0010808FAE5
:1012D0000CF3B1F800C00CEA03069E4221D1830052
:1012E0004FF00F0C0CFA03F7BC4305FA03FC4CEA71
:1012F000040491F803C0BCF1280F05D100F1080CDB
:1013000008FA0CF8C2F8148091F803C0BCF1480F39
:1013100007D100F1080C4FF0010808FA0CF8C2F8E8
:101320001080401C0828CED35460BDE8F081416194
:10133000704700BFFEE7000008B50121142000F04F
:1013400085F810208DF8030003208DF80200082096
:10135000ADF8000069460F48FFF75EFF08210D4811
:10136000FFF7E5FF4FF40050ADF8000069460A486A
:10137000FFF752FF1020ADF8000028208DF8030081
:1013800069460448FFF748FF10210248FFF7CFFFE6
:1013900008BD0000000801400010014000BFFEE74A
:1013A0007047000070B5002100230F22C47804B3F9
:1013B000154C246804F4E064C4F5E064210AC1F12A
:1013C0000403CA40447804FA03F1847814402143AA
:1013D00009010E4C0678A155047804F01F0501247C
:1013E000AC4005786D11AD0005F1E025C5F8004170
:1013F00009E0047804F01F050124AC40044D067890
:10140000761145F8264070BD0CED00E000E400E0E8
:1014100080E100E002490143024A11607047000088
:101420000000FA050CED00E07047000029B1064A03
:10143000D2690243044BDA6104E0034AD269824371
:10144000014BDA61704700000010024029B1064AE2
:1014500092690243044B9A6104E0034A9269824311
:10146000014B9A61704700000010024030B5002126
:101470000022002400232D4D6D6805F00C0121B1E0
:10148000042905D0082923D105E0294D056022E073
:10149000274D05601FE0254D6D6805F47012234D42
:1014A0006D6805F48034022505EB92421CB9214D8C
:1014B000554305600BE01D4D6D6805F400351DB109
:1014C0001C4D5543056002E0194D5543056002E08F
:1014D000174D056000BF00BF144D6D6805F0F001A9
:1014E0000909154D6B5C0568DD4045600F4D6D6861
:1014F00005F4E061090A104D6B5C4568DD408560CC
:101500000A4D6D6805F46051C90A0B4D6B5C456866
:10151000DD40C560054D6D6805F44041890B074D00
:101520006B5CC568B5FBF3F5056130BD001002408A
:1015300000127A0000093D001E0000202E0000204D
:10154000704710B500F002F810BD00000CB5002087
:10155000019000903348006840F4803031490860C1
:1015600000BF3048006800F4003000900198401C33
:101570000190009818B90198B0F5A06FF1D12948F1
:10158000006800F4003010B10120009001E000205C
:1015900000900098012843D12348006840F01000D3
:1015A000214908600846006820F0030008600846EA
:1015B000006840F0020008601A4840681949486015
:1015C0000846406848600846406840F480604860CB
:1015D0000846406820F47C1048600846406840F4A3
:1015E000E81048600846006840F08070086000BF5E
:1015F0000C48006800F000700028F9D009484068E5
:1016000020F00300074948600846406840F00200A7
:10161000486000BF0348406800F00C000828F9D17A
:101620000CBD00000010024000200240042808D138
:101630004FF0E021096941F004014FF0E02211610F
:1016400007E04FF0E021096921F004014FF0E022AA
:10165000116170477047000010B51348006840F0F2
:1016600001001149086008464068104908400E49C9
:101670004860084600680E4908400B490860084663
:10168000006820F4802008600846406820F4FE00CE
:1016900048604FF41F008860FFF753FF4FF0006071
:1016A0000449086010BD0000001002400000FFF86F
:1016B000FFFFF6FE08ED00E010B5012003490870B9
:1016C0000121034800F034F810BD00003200002072
:1016D000000400407FB504460D4601210220FFF7BB
:1016E000A5FE0020ADF80200ADF80050ADF80440B2
:1016F00069460E4800F03AF81D208DF80C000120D4
:101700008DF80D0002208DF80E0001208DF80F00DD
:1017100003A8FFF747FE01221146044800F01AF81B
:101720000021024800F007F87FBD000000040040DF
:10173000CA430282704721B1028842F0010202804E
:1017400004E002884FF6FE731A400280704701469B
:10175000888C70471AB183890B43838102E08389A7
:101760008B43838170478184704700000022028888
:101770001D4B98420ED01D4B98420BD0B0F1804FBC
:1017800008D01B4B984205D01A4B984202D01A4BF6
:10179000984204D14FF68F731A404B881A43174B67
:1017A000984207D0164B984204D04FF6FF431A4098
:1017B000CB881A4302808B8883850B8803850A4B6C
:1017C00098420BD0094B984208D00E4B984205D056
:1017D0000D4B984202D00D4B984201D10B7A0386F3
:1017E0000123838270470000002C01400034014037
:1017F0000004004000080040000C004000100040C1
:1018000000140040004001400044014000480140F5
:1018100010B540F225511D4800F04AF810B31B489E
:1018200000F002F9C4B21A48008800F40040C8B9B8
:101830001748008800F4804060B10A2C03D00020D3
:101840001349088020E01248008840F40040104905
:10185000088019E00D2C06D10D48008840F4804026
:101860000B49088010E00A480088C0F30D000949C0
:101870000C5407480088401C054908800846008829
:10188000C72801DD0020088010BD0000003801409D
:101890001C0000203400002021B1828942F4005253
:1018A000828104E082894DF6FF731A40828170477D
:1018B00070B50246002400230025002040F66A1679
:1018C000B14200D100BFC1F3421501F01F03012650
:1018D00006FA03F3012D02D19689334006E0022D6A
:1018E00002D1168A334001E0968A33400C12012659
:1018F00006FA04F41688344013B10CB1012000E05C
:10190000002070BDF0B5034600240026002500200D
:1019100040F66A17B94200D100BF1846C1F342141D
:1019200001F01F06012707FA06F5012C01D10C3042
:1019300004E0022C01D1103000E014301AB1076825
:101940002F43076002E00768AF430760F0BD000067
:101950002DE9F04786B005460E460024A24600BF9A
:10196000A1460027B08900B100BF2F462C8A4CF653
:10197000FF700440F08804432C82AC894EF6F310CB
:101980000440B08831890843718908430443AC811D
:10199000AC8A4FF6FF400440B0890443AC8201A8F2
:1019A000FFF764FD1F48874202D1DDF810A001E077
:1019B000DDF80CA0A88900F4004040B10AEBCA0091
:1019C00000EB0A1031684900B0FBF1F807E00AEBC0
:1019D000CA0000EB0A1031688900B0FBF1F86420FE
:1019E000B8FBF0F004012009642101FB1089A889EB
:1019F00000F4004040B1322000EBC900B0FBF1F030
:101A000000F00700044308E0322000EB09106421D5
:101A1000B0FBF1F000F00F0004432C8106B0BDE8EC
:101A2000F08700000038014001468888C0F30800B4
:101A3000704700BFFEE7490050EAC12018BF0420EC
:101A40004A0D18BF40F0010040F2FF72B2EB515F47
:101A500008BF40F00200012808BF05207047303859
:101A60000A2801D20120704700207047014600BFBC
:101A70007047000010B56FF00400FFF7D7FD0A486B
:101A800000680A49B0FBF1F009490870084600787F
:101A900000EB4001C1EBC0104FF6FF7101EAC0003E
:101AA0000449088010BD00000000002000127A00E8
:101AB00014000020160000200146114A12884A43F3
:101AC0004FF0E0235A6100229A611A46126942F0EF
:101AD00001021A6100BF4FF0E022106900F001021C
:101AE0001AB100F48032002AF5D04FF0E0221269DA
:101AF00022F001024FF0E0231A6100229A61704740
:101B0000160000200146114A12784A434FF0E023A4
:101B10005A6100229A611A46126942F001021A6162
:101B200000BF4FF0E022106900F001021AB100F48A
:101B30008032002AF5D04FF0E022126922F0010233
:101B40004FF0E0231A6100229A61704714000020D0
:101B500000BF054A128802F04002002AF9D0C2B242
:101B6000014B1B1D1A8070470038014000BF4FF425
:101B7000A060FFF74FFCFFF77DFFFFF7DDFB47217C
:101B80004FF6FF70FFF7A6FD4FF4E13000F07AF852
:101B90002AA0FEF749FB4FE02E48006808B9012053
:101BA00000E000202B4908602BA0FEF73DFB012040
:101BB0002C49C1F88C011420FFF7A4FF00202A490A
:101BC000086000BF28487C3800680028FAD001214E
:101BD0002648FFF7B0FD00BF23487C380068002886
:101BE000FAD100212148FFF7A6FD2148007808B16D
:101BF000204C0EE01D48FFF7AAFD814600F032FAA6
:101C0000074600221C4B00F0D5F8054600F0A0F86E
:101C1000044600211548FFF7A6FD0020144908706E
:101C2000204600F087FA05462A460B4613A0FEF729
:101C3000FBFA6420FFF740FFAEE70000BBB6D3AD70
:101C4000CAB9D3C3B3ACC9F9B2A8B2E2BEE00D0AB7
:101C500000000000B4012242B5B1C7B0BEE0C0EB45
:101C6000A3BA0000000021428C0121420004004080
:101C7000320000200000C84300004D40252E316690
:101C80000D0A000010B586B00446012144F204009C
:101C9000FFF7DCFB4FF40070ADF8140003208DF863
:101CA000160018208DF8170005A91C48FFF7B4FA94
:101CB0004FF48060ADF8140004208DF8170005A9DA
:101CC0001648FFF7A9FA25208DF8000003208DF8AB
:101CD00001008DF8020001208DF803006846FFF72F
:101CE00061FB01940020ADF80800ADF80A00ADF8E2
:101CF0000C00ADF810000C20ADF80E0001A908484A
:101D0000FFF726FE012240F225510548FFF7FAFDB4
:101D100001210348FFF7C0FD06B010BD00080140D7
:101D20000038014010B500290AD00878002807D0F3
:101D300005487844FEF772FE002801D0002010BD4F
:101D40000248784410BD0000A60500009E05000072
:101D500021F00042A2F16052B2F5801F01F0004371
:101D600028BFD2F17F6C0BD95FEA001C43EAC202A4
:101D700042EB507018BF704728BF20F00100704739
:101D8000B2F5801FBCBF184670474FEA410C1CF5E6
:101D9000001F02D2084600F03EBA70B500F075F997
:101DA00000000089FFF7F6BF4FF00040A0F580006B
:101DB000704700002DE9C04130B4DFF8A0C23CEA12
:101DC000111418BF3CEA131400F0EC8081EA0305FB
:101DD0001CEA111444EAD57418BF1CEA131500F06C
:101DE000C780A4EB05044FF0004545EAC12145EA50
:101DF000C32341EA505143EA525304F17F7499429C
:101E000004F500344FEAC0204FEAC22208BF9042D6
:101E100000F09C804FEA13650FF24016765D4FEAA2
:101E2000134506FB05F7C7F1807706FB07F74FEA76
:101E3000D737A7FB03687642C8F58038A7FB06CEE4
:101E400038BFA8F1010807FB08E64FF0000EA6FB1B
:101E5000028CE6FB03CEDCF1000CCEF1004E38BF65
:101E6000AEF1010EA6FB0C584FF000074FF0000535
:101E7000E6FB0E87A1FB08C6A0FB07CE16EB0E06FD
:101E800045F10005E1FB076515F1E04E7EBFA4F5C5
:101E900080345FEA46066D4116F1800745F1000582
:101EA0004FEA17274FEA066647EA0567A6F1DE46BE
:101EB000B6F1805F4FEA15251FD9384624F0010C92
:101EC00005EBC471BCF1FE6F01EB0C1102D8F0BC44
:101ED000BDE8008124425CBF01F5801E9EEAC47FFC
:101EE00002D4F0BCBDE80081244238D4F0BCA1F19A
:101EF000C041BDE8004100F016B94FEAD22242EAE3
:101F000043524FEAD323A7FB02864FEAD02040EA90
:101F1000415007FB03661EEA0E0F4FEAD12105FB75
:101F2000026658BFA6EB0056B6EB00564FEA520EBB
:101F30004EEAC37E18EB0E0E56EB530EBDD518EBD2
:101F400002085E417F1C55F10005B6E74FF480158D
:101F50004FF000074FF000064FF00008ADE7F0BC6F
:101F60004FF0000001F1C04101F00041BDE80081E7
:101F700011EA0C1F0CEA131500D00CE013EA0C1F39
:101F800000F025804FF00000F0BC81EA030101F071
:101F90000041BDE80081F0BCBDE8004181EA0301D9
:101FA00000F0C1B8F0BCBDE8004170B500F06DF8BC
:101FB000097EFC3E00F007B881EA03014FF0000003
:101FC00001F00041704781EA030100F0ACB8F0BCB9
:101FD000BDE800414FF0000021497047FFFDFBF9CB
:101FE000F7F5F4F2F0EEEDEBE9E8E6E4E3E1E0DE4C
:101FF000DDDBDAD8D7D5D4D3D1D0CFCDCCCBCAC8BE
:10200000C7C6C5C4C2C1C0BFBEBDBCBBBAB9B8B7E4
:10201000B6B5B4B3B2B1B0AFAEADACABAAA9A8A8D7
:10202000A7A6A5A4A3A3A2A1A09F9F9E9D9C9C9BA5
:102030009A99999897979695959493939291919050
:102040008F8F8E8E8D8C8C8B8B8A898988888787E1
:102050008685858484838382828181800000FF0756
:102060000000F87FB0FA80F310FA03F10AD0C3F150
:102070001D0303F580634FEA41504FEA035202EB20
:10208000D12170474FF0000070470EF1020E2EF084
:10209000030E5EF8046B364205D4012A43EB0305B8
:1020A00015F5001F12D8012841EB010C1CF5001F8B
:1020B0000CD80ED14FEAD17C15F5001F0CEB4C0C5F
:1020C0000CF1020C08BF4CEBD37C04E04FF0080C81
:1020D00001E04FEAD37C0CEB4C0526FA05F606F03E
:1020E0000706B6F1040C06D20EEB860CBDE8704074
:1020F0004CF0010C6047DFE80CF0090B02024FF0D6
:1021000000414FF00000A1F5002170BD19461046B6
:10211000012851EB010418BFD4F5001484BF00203E
:1021200001F0004170BD0808A0F500114FEA31012F
:102130007047000043004FEAD30C4FEA3C0C434089
:102140001FBF40070CF1605113F0FE4F70471CF0A9
:10215000006F03D100200CF0004170470CF00043E9
:1021600043EA507010B540EACC0000F00EF800BF12
:10217000000000924FEA0001FFF7D5BF4FF0004189
:102180004FF00000A1F5002170470EF1020E2EF075
:10219000030E5EF8044B244204D44FEA4102B2F12C
:1021A0007F4F11D84FEA4003B3F17F4F0CD80ED1C7
:1021B0004FEAD07CB2F17F4F0CEB4C0C0CF1020CCF
:1021C00008BF4CEBD17C04E04FF0080C01E04FEA73
:1021D000D17C0CEB4C0324FA03F404F00704B4F1B3
:1021E000040C06D20EEB840CBDE810404CF0010C40
:1021F0006047DFE80CF0070802024FF00040A0F54E
:10220000800010BD0846420018BFD2F1807288BF1E
:1022100000F0004010BDFF2141EAD050C0057047DA
:10222000FEF770B902400000000000A000000000AE
:1022300005400000000000C8000000000C40000045
:102240000000409C00000000194000000020BCBEBF
:102250000000000034400000BFC91B8E00000004D5
:10226000B5400000504BCFD06607E2CF0100000020
:102270006C4100003E8251AADFEEA734010000004D
:10228000D9420000DCB5A0E23A301F97FFFFFFFF04
:10229000B4450000FD25A0C8E9A3C14FFFFFFFFF23
:1022A000FF3F00000000008000000000FF3F000032
:1022B0000000008000000000F42200080000002060
:1022C000340000006C0100082823000834000020BE
:1022D0002C070000880100081C00000043000000DB
:1022E000F8FFFFFF0C0000000E0000000F000000D0
:1022F0002E00000000A24A040000000000000000C0
:1023000001020304060708090000000000000000A5
:10231000000000000000010203040102030406079C
:08232000080902040608000090
:04000005080001E509
:00000001FF
