:020000040800F2
:1000000060070020CD01000815050008390400082C
:100010001105000815030008370C00080000000057
:10002000000000000000000000000000B50600080D
:1000300019030008000000009D050008C90700081A
:10004000E7010008E7010008E7010008E7010008F0
:10005000E7010008E7010008E7010008E7010008E0
:10006000E7010008E7010008E7010008E7010008D0
:10007000E7010008E7010008E7010008E7010008C0
:10008000E7010008E7010008E7010008E7010008B0
:10009000E7010008E7010008E7010008E7010008A0
:1000A000E7010008E7010008E7010008E701000890
:1000B000E70100082D08000849080008E7010008CA
:1000C000E7010008E7010008E7010008E701000870
:1000D000E7010008E7010008E7010008E701000860
:1000E000E7010008E7010008E7010008E701000850
:1000F000E7010008E7010008E7010008E701000840
:10010000E7010008E701000865080008E7010008AA
:10011000150A0008E7010008E7010008E7010008E8
:10012000E7010008E7010008E7010008E70100080F
:1001300000F002F800F03AF80AA090E8000C8244BF
:100140008344AAF10107DA4501D100F02FF8AFF29C
:10015000090EBAE80F0013F0010F18BFFB1A43F0A5
:10016000010318477C1900009C190000103A24BFB5
:1001700078C878C1FAD8520724BF30C830C144BF0C
:1001800004680C607047000000230024002500264E
:10019000103A28BF78C1FBD8520728BF30C148BFEA
:1001A0000B6070471FB51FBD10B510BD00F06EF895
:1001B0001146FFF7F7FF00F0BFFD00F0A0F803B411
:1001C000FFF7F2FF03BC00F038FD0000094880474C
:1001D00009480047FEE7FEE7FEE7FEE7FEE7FEE729
:1001E000FEE7FEE7FEE7FEE704480549054A064B41
:1001F00070470000CD0700083101000860010020B1
:1002000060070020600300206003002070470000AA
:100210000FB4044910B503AA029800F009F810BC05
:100220005DF814FB18000020704770477047704756
:10023000074B70B50D467B4400F011F80446284684
:1002400000F020F810B14FF0FF3070BD204670BDB7
:10025000E30A000001694A1C02610878704700B592
:100260008FB0CDE901310021059105497944CDE9EF
:1002700003101146684600F02EF80FB000BD0000D4
:10028000E5FFFFFF007B00F080007047754600F03F
:100290003DF8AE4605006946534620F00700854606
:1002A00018B020B5FFF7A0FFBDE820404FF00006D2
:1002B0004FF000074FF000084FF0000B21F007014E
:1002C000AC46ACE8C009ACE8C009ACE8C009ACE891
:1002D000C0098D4670472DE9F04106460024D6E955
:1002E0000170F5688046304603E04146B847641C1B
:1002F0003046A8470028F8D12046BDE8F0810446E2
:10030000AFF300802046FFF75AFF00000048704717
:10031000FC00002000BFFEE770472DE9F0410246D7
:1003200000250026002000230024002791F803C0A8
:100330000CF00F0591F803C00CF0100CBCF1000F8D
:1003400003D091F802C04CEA050591F800C0BCF159
:10035000000F31D0146800202BE04FF0010C0CFA94
:1003600000F3B1F800C00CEA03069E4220D18300DE
:100370004FF00F0C0CFA03F7BC4305FA03FC4CEAF0
:10038000040491F803C0BCF1280F06D14FF0010C12
:100390000CFA00FCC2F814C00AE091F803C0BCF1EA
:1003A000480F05D14FF0010C0CFA00FCC2F810C048
:1003B000401C0828D1D31460B1F800C0BCF1FF0F75
:1003C00034DD546800202EE000F1080C4FF00108E5
:1003D00008FA0CF3B1F800C00CEA03069E4221D1E2
:1003E00083004FF00F0C0CFA03F7BC4305FA03FC33
:1003F0004CEA040491F803C0BCF1280F05D100F1C8
:10040000080C08FA0CF8C2F8148091F803C0BCF18B
:10041000480F07D100F1080C4FF0010808FA0CF85A
:10042000C2F81080401C0828CED35460BDE8F0818B
:10043000416170470161704700BFFEE708B50121C7
:100440005C2000F0BDF810208DF8030003208DF82B
:1004500002004FF48070ADF8000069462948FFF7AC
:100460005CFF4020ADF8000069462748FFF755FFC4
:100470004FF40050ADF8000069462448FFF74DFFE7
:100480001020ADF8000069462048FFF746FF4FF402
:1004900000511E48FFF7CCFF40211B48FFF7C8FF63
:1004A00010211A48FFF7C4FF4FF480711548FFF779
:1004B000C1FF28208DF803004FF40040ADF8000084
:1004C00069461248FFF729FF4FF48050ADF800004D
:1004D00069460E48FFF721FF0820ADF80000694685
:1004E0000A48FFF71AFF4FF400410848FFF7A0FF42
:1004F0004FF480510548FFF79BFF08210348FFF7A1
:1005000097FF08BD0008014000100140000C0140A9
:1005100000BFFEE77047000070B5002100230F22E6
:10052000C47804B3154C246804F4E064C4F5E064B2
:10053000210AC1F10403CA40447804FA03F1847823
:100540001440214309010E4C0678A155047804F0AB
:100550001F050124AC4005786D11AD0005F1E025C3
:10056000C5F8004109E0047804F01F050124AC40FF
:10057000044D0678761145F8264070BD0CED00E07C
:1005800000E400E080E100E002490143024A11601A
:10059000704700000000FA050CED00E07047000015
:1005A00029B1064AD2690243044BDA6104E0034AE6
:1005B000D2698243014BDA617047000000100240AB
:1005C00029B1064A92690243044B9A6104E0034A46
:1005D00092698243014B9A6170470000001002400B
:1005E00030B500210022002400232D4D6D6805F058
:1005F0000C0121B1042905D0082923D105E0294D9A
:10060000056022E0274D05601FE0254D6D6805F46B
:100610007012234D6D6805F48034022505EB92427B
:100620001CB9214D554305600BE01D4D6D6805F467
:1006300000351DB11C4D5543056002E0194D554371
:10064000056002E0174D056000BF00BF144D6D68E6
:1006500005F0F0010909154D6B5C0568DD4045604A
:100660000F4D6D6805F4E061090A104D6B5C45683B
:10067000DD4085600A4D6D6805F46051C90A0B4D77
:100680006B5C4568DD40C560054D6D6805F4404113
:10069000890B074D6B5CC568B5FBF3F5056130BD93
:1006A0000010024000127A0000093D001E000020E8
:1006B0002E000020704710B500F002F810BD0000B9
:1006C0000CB50020019000903348006840F4803061
:1006D0003149086000BF3048006800F400300090E5
:1006E0000198401C0190009818B90198B0F5A06FCE
:1006F000F1D12948006800F4003010B101200090C9
:1007000001E0002000900098012843D123480068B0
:1007100040F01000214908600846006820F00300FE
:1007200008600846006840F0020008601A48406807
:10073000194948600846406848600846406840F4E7
:10074000806048600846406820F47C104860084695
:10075000406840F4E81048600846006840F0807047
:10076000086000BF0C48006800F000700028F9D055
:100770000948406820F0030007494860084640687F
:1007800040F00200486000BF0348406800F00C00E1
:100790000828F9D10CBD00000010024000200240E2
:1007A000042808D14FF0E021096941F004014FF01D
:1007B000E022116107E04FF0E021096921F0040116
:1007C0004FF0E022116170477047000010B51348E8
:1007D000006840F00100114908600846406810496F
:1007E00008400E494860084600680E4908400B4919
:1007F00008600846006820F48020086008464068C9
:1008000020F4FE0048604FF41F008860FFF753FF9C
:100810004FF000600449086010BD00000010024065
:100820000000FFF8FFFFF6FE08ED00E010B5012024
:10083000034908700121034800F022F810BD0000B0
:10084000320000200004004010B501200349087068
:100850000121034800F014F810BD00003200002010
:100860000008004010B50120034908700121034829
:1008700000F006F810BD000032000020000C00401F
:10088000CA430282704721B1028842F0010202800D
:1008900004E002884FF6FE731A400280704701465A
:1008A000888C70471AB183890B43838102E0838966
:1008B0008B438381704700007FB505460C461D20A1
:1008C0008DF8000001208DF8010002208DF8020053
:1008D00001208DF803006846FFF71EFE1E208DF8EC
:1008E00000006846FFF718FE32208DF800006846C9
:1008F000FFF712FE01210220FFF752FE0121042022
:10090000FFF74EFE01210820FFF74AFEADF8085020
:10091000ADF804400020ADF80A00ADF8060001A9CA
:100920000F4800F025F801A90E4800F021F801A9B0
:100930000D4800F01DF800210948FFF7A4FF01222F
:1009400011460748FFF7AEFF012211460548FFF7A1
:10095000A9FF012211460448FFF7A4FF7FBD000054
:100960000004004000080040000C004081847047F3
:10097000002202881D4B98420ED01D4B98420BD08E
:10098000B0F1804F08D01B4B984205D01A4B9842CB
:1009900002D01A4B984204D14FF68F731A404B88FD
:1009A0001A43174B984207D0164B984204D04FF683
:1009B000FF431A40CB881A4302808B8883850B88BB
:1009C00003850A4B98420BD0094B984208D00E4B36
:1009D000984205D00D4B984202D00D4B984201D160
:1009E0000B7A03860123838270470000002C0140AC
:1009F000003401400004004000080040000C0040AA
:100A0000001000400014004000400140004401403C
:100A10000048014010B540F225511D4800F04AF849
:100A200010B31B4800F002F9C4B21A48008800F461
:100A30000040C8B91748008800F4804060B10A2C13
:100A400003D000201349088020E01248008840F4B9
:100A500000401049088019E00D2C06D10D4800888F
:100A600040F480400B49088010E00A480088C0F339
:100A70000D0009490C5407480088401C05490880AE
:100A800008460088C72801DD0020088010BD00004E
:100A9000004C00401C0000203400002021B182895D
:100AA00042F40052828104E082894DF6FF731A40BD
:100AB0008281704770B50246002400230025002083
:100AC00040F66A16B14200D100BFC1F3421501F0F1
:100AD0001F03012606FA03F3012D02D19689334044
:100AE00006E0022D02D1168A334001E0968A334097
:100AF0000C12012606FA04F41688344013B10CB126
:100B0000012000E0002070BDF0B50346002400265F
:100B10000025002040F66A17B94200D100BF1846F0
:100B2000C1F3421401F01F06012707FA06F5012C54
:100B300001D10C3004E0022C01D1103000E014305F
:100B40001AB107682F43076002E00768AF430760E8
:100B5000F0BD00002DE9F04786B005460E460024A2
:100B6000A24600BFA1460027B08900B100BF2F46B2
:100B70002C8A4CF6FF700440F08804432C82AC8928
:100B80004EF6F3100440B088318908437189084358
:100B90000443AC81AC8A4FF6FF400440B089044363
:100BA000AC8201A8FFF71CFD1F48874202D1DDF887
:100BB00010A001E0DDF80CA0A88900F4004040B1CD
:100BC0000AEBCA0000EB0A1031684900B0FBF1F8EB
:100BD00007E00AEBCA0000EB0A1031688900B0FB9D
:100BE000F1F86420B8FBF0F004012009642101FB56
:100BF0001089A88900F4004040B1322000EBC90000
:100C0000B0FBF1F000F00700044308E0322000EBF5
:100C100009106421B0FBF1F000F00F0004432C81B7
:100C200006B0BDE8F0870000003801400146888822
:100C3000C0F30800704700BFFEE7014600BF7047E1
:100C400010B56FF00400FFF7ABFD0A4800680A49D1
:100C5000B0FBF1F0094908700846007800EB40014C
:100C6000C1EBC0104FF6FF7101EAC00004490880D3
:100C700010BD00000000002000127A0014000020C7
:100C8000160000200146114A12884A434FF0E02323
:100C90005A6100229A611A46126942F001021A61F1
:100CA00000BF4FF0E022106900F001021AB100F419
:100CB0008032002AF5D04FF0E022126922F00102C2
:100CC0004FF0E0231A6100229A617047160000205D
:100CD0000146114A12784A434FF0E0235A6100223C
:100CE0009A611A46126942F001021A6100BF4FF080
:100CF000E022106900F001021AB100F48032002AEB
:100D0000F5D04FF0E022126922F001024FF0E0230B
:100D10001A6100229A6170471400002000BF054A42
:100D2000128802F04002002AF9D0C2B2014B1B1D0A
:100D30001A807047004C004094B00027B846B9466E
:100D400000201190002410900F9000250E900D901F
:100D500000260C904FF4E13000F00AFA4FF4A06046
:100D6000FFF712FCFFF76CFFFFF768FB0020ED496F
:100D70000860ED49C1F8B401EC49086047214FF61D
:100D8000FF70FFF799FD0120E949C1F8A001E9A032
:100D9000FFF73EFAC5E10020E749087000278046CA
:100DA00081468246834612900120DE490860DE4972
:100DB000C1F8B401DD4908601420FFF789FF002065
:100DC000D8490860D94924310860D749C1F8900151
:100DD000B2E0D6485438006828B127B90121D74875
:100DE000FFF751FD0127D1486038006840B1B8F1E4
:100DF000000F05D10121D248FFF745FD4FF0010852
:100E0000CA488438006840B1B9F1000F05D14FF0ED
:100E100001090121CB48FFF736FDEFB1C348543833
:100E20000068C8B90027C548FFF739FD019000F0F8
:100E300089FB0022C44BCDE9020100F02BFACDE979
:100E4000040100F0E9F982460021BC48FFF78EFD5D
:100E50000021BA48FFF717FDB8F1000F1ED0B348C4
:100E600060380068D0B94FF00008B548FFF717FDAB
:100E7000019000F067FB0022B34BCDE9020100F0C6
:100E800009FACDE9040100F0C7F983460021AC4816
:100E9000FFF76CFD0021AA48FFF7F5FCB9F1000F40
:100EA0001ED0A24884380068D0B94FF00009A54888
:100EB000FFF7F5FC019000F045FB0022A24BCDE9C5
:100EC000020100F0E7F9CDE9040100F0A5F9129064
:100ED00000219C48FFF74AFD00219A48FFF7D3FC08
:100EE0000021504600F0A2FC0AD00021584600F034
:100EF0009DFC05D00021129800F098FC00D01CE069
:100F00008D480078C0B100218E48FFF72FFD0021E9
:100F10008C48FFF7B8FC00218948FFF727FD002126
:100F20008748FFF7B0FC00218448FFF71FFD002130
:100F30008248FFF7A8FC00E04BE700BF7E4800783E
:100F400000B1EEE01194109CCDF840A00F950E9DDD
:100F5000CDF838B00D960C9E12980C902146119841
:100F600000F048FD0B902046109900F043FD0A90D8
:100F700029460F9800F03EFD099028460E9900F092
:100F800039FD089031460D9800F034FD0790304649
:100F90000C9900F02FFD06900B9800F0ADFB21F0AE
:100FA00000410022694BCDE9040100F06FFB00D243
:100FB000B7E00A9800F0A0FB21F000410022634B4B
:100FC000CDE9040100F062FB00D2AAE0099800F02C
:100FD00093FB21F0004100225C4BCDE9040100F0BD
:100FE00055FB00D29DE0089800F086FB21F00041FF
:100FF0000022564BCDE9040100F048FB00D290E0FE
:10100000079800F079FB21F0004100224F4BCDE919
:10101000040100F03BFB00D283E0069800F06CFB7B
:1010200021F000410022494BCDE9040100F02EFBE4
:1010300000D276E04649504600F02CFC09D34449E2
:10104000584600F027FC04D34149129800F022FCD6
:1010500002D240A0FFF7DCF83F49504600F099FC6F
:101060000ED23EA0FFF7D4F84FF4FA60FFF70AFE65
:1010700030A0FFF7CDF84FF4FA60FFF703FE22E04F
:101080003749584600F006FC1DD23349129800F04B
:1010900080FC0ED233A0FFF7BBF84FF4FA60FFF7E5
:1010A000F1FD24A0FFF7B4F84FF4FA60FFF7EAFD72
:1010B00009E02AA0FFF7ACF84FF47A60FFF7E2FDF1
:1010C0001CA0FFF7A5F84FF080410B9800F061FCE1
:1010D0000ED24FF080410A9800F05BFC08D222A0AB
:1010E000FFF796F8C820FFF7CDFD12A0FFF790F8A4
:1010F0004FF040410B9800F0CDFB0ED24FF0404135
:101100000A9800F0C7FB08D218A0FFF781F8C820A2
:10111000FFF7B8FD07A0FFF77BF86420FFF7B2FDEB
:1011200000BF38E69801224200802142908121428E
:101130000000214231000000320000200004004085
:1011400000080040000C004000004D40000014402A
:10115000000020413600000000004843320000003B
:101160000000C842330000003500000034000000D9
:1011700010B586B0044601211020FFF721FA0121A5
:10118000C804FFF70DFA4FF48060ADF81400032097
:101190008DF8160018208DF8170005A91C48FFF7D8
:1011A000BCF84FF40060ADF8140004208DF817006F
:1011B00005A91748FFF7B1F834208DF80000032087
:1011C0008DF801008DF8020001208DF803006846BB
:1011D000FFF7A2F901940020ADF80800ADF80A006D
:1011E000ADF80C00ADF810000C20ADF80E0001A910
:1011F0000848FFF7AFFC012240F225510548FFF7F0
:1012000083FC01210348FFF749FC06B010BD000034
:1012100000100140004C004021F00042A2F1605259
:10122000B2F5801F01F0004328BFD2F17F6C0BD9CB
:101230005FEA001C43EAC20242EB507018BF7047DD
:1012400028BF20F001007047B2F5801FBCBF1846D0
:1012500070474FEA410C1CF5001F02D2084600F00F
:1012600093BB70B500F0BEF900000089FFF7F6BF30
:101270004FF00040A0F580007047491058BFC1F101
:1012800040415B1058BFC3F140438B42EFF30080F5
:10129000704700002DE9C04130B4DFF8A0C23CEA3D
:1012A000111418BF3CEA131400F0EC8081EA030526
:1012B0001CEA111444EAD57418BF1CEA131500F097
:1012C000C780A4EB05044FF0004545EAC12145EA7B
:1012D000C32341EA505143EA525304F17F749942C7
:1012E00004F500344FEAC0204FEAC22208BF904202
:1012F00000F09C804FEA13650FF24016765D4FEACE
:10130000134506FB05F7C7F1807706FB07F74FEAA1
:10131000D737A7FB03687642C8F58038A7FB06CE0F
:1013200038BFA8F1010807FB08E64FF0000EA6FB46
:10133000028CE6FB03CEDCF1000CCEF1004E38BF90
:10134000AEF1010EA6FB0C584FF000074FF0000560
:10135000E6FB0E87A1FB08C6A0FB07CE16EB0E0628
:1013600045F10005E1FB076515F1E04E7EBFA4F5F0
:1013700080345FEA46066D4116F1800745F10005AD
:101380004FEA17274FEA066647EA0567A6F1DE46E9
:10139000B6F1805F4FEA15251FD9384624F0010CBD
:1013A00005EBC471BCF1FE6F01EB0C1102D8F0BC6F
:1013B000BDE8008124425CBF01F5801E9EEAC47F27
:1013C00002D4F0BCBDE80081244238D4F0BCA1F1C5
:1013D000C041BDE8004100F053B94FEAD22242EAD1
:1013E00043524FEAD323A7FB02864FEAD02040EABC
:1013F000415007FB03661EEA0E0F4FEAD12105FBA1
:10140000026658BFA6EB0056B6EB00564FEA520EE6
:101410004EEAC37E18EB0E0E56EB530EBDD518EBFD
:1014200002085E417F1C55F10005B6E74FF48015B8
:101430004FF000074FF000064FF00008ADE7F0BC9A
:101440004FF0000001F1C04101F00041BDE8008112
:1014500011EA0C1F0CEA131500D00CE013EA0C1F64
:1014600000F025804FF00000F0BC81EA030101F09C
:101470000041BDE80081F0BCBDE8004181EA030104
:1014800000F0FEB8F0BCBDE8004170B500F0AAF86D
:10149000097EFC3E00F007B881EA03014FF000002E
:1014A00001F00041704781EA030100F0E9B8F0BCA7
:1014B000BDE800414FF0000021497047FFFDFBF9F6
:1014C000F7F5F4F2F0EEEDEBE9E8E6E4E3E1E0DE77
:1014D000DDDBDAD8D7D5D4D3D1D0CFCDCCCBCAC8E9
:1014E000C7C6C5C4C2C1C0BFBEBDBCBBBAB9B8B710
:1014F000B6B5B4B3B2B1B0AFAEADACABAAA9A8A803
:10150000A7A6A5A4A3A3A2A1A09F9F9E9D9C9C9BD0
:101510009A9999989797969595949393929191907B
:101520008F8F8E8E8D8C8C8B8B8A8989888887870C
:101530008685858484838382828181800000FF0781
:101540000000F87FB0FA80F310FA03F10AD0C3F17B
:101550001D0303F580634FEA41504FEA035202EB4B
:10156000D12170474FF000007047000051EA030C92
:1015700017D41CF5801F58BFBCF5801F00F10680F2
:10158000994218BF704708BF9042704707D711F5BE
:10159000801F58BF13F5801F19D4994270478942A4
:1015A00070471CF5801F08D5BCF5801FF7D58B420E
:1015B00018BF704708BF824270474FF4001C1CEBF5
:1015C000410F38BF1CEB430F01D28B42704770B5FF
:1015D00000F008F8922449004FF000514FF080537A
:1015E000FFF74BBE0EF1020E2EF0030E5EF8046BF9
:1015F000364205D4012A43EB030515F5001F12D826
:10160000012841EB010C1CF5001F0CD80ED14FEA4C
:10161000D17C15F5001F0CEB4C0C0CF1020C08BF33
:101620004CEBD37C04E04FF0080C01E04FEAD37C94
:101630000CEB4C0526FA05F606F00706B6F1040C8D
:1016400006D20EEB860CBDE870404CF0010C6047F2
:10165000DFE80CF0090B02024FF000414FF00000F0
:10166000A1F5002170BD19461046012851EB010477
:1016700018BFD4F5001484BF002001F0004170BDF4
:101680000808A0F500114FEA3101704753EA010C38
:1016900017D41CF5801F58BFBCF5801F00F10680D1
:1016A0008B4218BF704708BF8242704707D713F5B7
:1016B000801F58BF11F5801F19D48B4270479B4281
:1016C00070471CF5801F08D5BCF5801FF7D59942DF
:1016D00018BF704708BF904270474FF4001C1CEBC6
:1016E000430F38BF1CEB410F01D2994270470FB432
:1016F0000CBC03BCFFF76BBF43004FEAD30C4FEAAF
:101700003C0C43401FBF40070CF1605113F0FE4FEB
:1017100070471CF0006F03D100200CF000417047AF
:101720000CF0004343EA507010B540EACC0000F0E2
:10173000E5F800BF000000924FEA0001FFF7A0BFEC
:101740004FF000414FF00000A1F50021704700006C
:1017500090EA010F48BF81F0004100F15281421A26
:101760003CBF801A89184FEAD0524FF07F4C1CEAD8
:10177000410FA2EBD15318BF9CEA026F00F03B80EF
:101780004FF0004C4CEA00204CEA012121FA03FC06
:1017900010EB0C0C1ED202F1FF325FEA1C2040EB72
:1017A000C25038BF70471CF07F0F4FEA400C18BF83
:1017B000BCF17F4F38BF7047C3F12003994008BF89
:1017C00020F00100BCF17F4F38BF7047A0F1C0404E
:1017D00000F0DAB84FEA3C00000A40EBC25028BFE4
:1017E0001CF0FF0F4FEA400CE6D018BFBCF17F4F52
:1017F00038BF7047EAE79CEA026F05D010EA5C0F39
:1018000008BF00F00040704710B500F077F800BF47
:1018100064FBBE3E401058BFC0F14040491058BF65
:10182000C1F140418142EFF30080704750EA010C62
:1018300000F113801CF5000F58BFBCF5000F01D458
:101840008842704707D710F5000F58BF11F5000FF9
:1018500015D488427047894270471CF5000F04D5A3
:10186000BCF5000FF7D5814270474FF0807C1CEB30
:10187000400F38BF1CEB410F01D28142704710B5B9
:1018800000F03CF8922449004FF000504FF0805196
:10189000FFF7C0BF50EA010C00F113801CF5000FE8
:1018A00058BFBCF5000F01D48842704707D710F528
:1018B000000F58BF11F5000F15D4884270478942B8
:1018C00070471CF5000F04D5BCF5000FF7D5814219
:1018D00070474FF0807C1CEB400F38BF1CEB410F72
:1018E00001D28142704710B500F008F892244900F7
:1018F0004FF000504FF08051FFF78CBF0EF1020EF9
:101900002EF0030E5EF8044B244204D44FEA410249
:10191000B2F17F4F11D84FEA4003B3F17F4F0CD89B
:101920000ED14FEAD07CB2F17F4F0CEB4C0C0CF196
:10193000020C08BF4CEBD17C04E04FF0080C01E036
:101940004FEAD17C0CEB4C0324FA03F404F00704B7
:10195000B4F1040C06D20EEB840CBDE810404CF040
:10196000010C6047DFE80CF0070802024FF000406E
:10197000A0F5800010BD0846420018BFD2F1807269
:1019800088BF00F0004010BDFF2141EAD050C005E3
:10199000704751EA000C00F113801CF5000F58BF8E
:1019A000BCF5000F01D48142704707D711F5000F35
:1019B00058BF10F5000F15D4814270478942704717
:1019C0001CF5000F04D5BCF5000FF7D58842704711
:1019D0004FF0807C1CEB410F38BF1CEB400F01D255
:1019E0008842704780EA010081EA000180EA010034
:1019F000FFF779BF90EA010F48BF81F000413FF542
:101A0000AEAE421A04D882F00042A0EB02001144AC
:101A10004FEAD0524FF07F4C1CEA410FA2EBD1535A
:101A200018BF9CEA026F4AD04FF0004C4CEA0020ED
:101A30004CEA012121FA03FCB0EB0C0C0FD412F09C
:101A4000FE0F36D05FEA4C001DD5001240EBC250AD
:101A500038BF70471CF03F0F18BF70470BE0A2F172
:101A600001025FEA1C2040EBC25038BF70471CF0F7
:101A70007F0F18BF7047C3F12003994014BF401E69
:101A800020F00100704780084FEA122308BF70471A
:101A9000B0FA80FCA2EB0C02CCF1280C60FA0CF03E
:101AA00093EA122F04BF00EBC25070474FEAC37095
:101AB0007047130A5FEADC1008BF7047F6E79CEA3C
:101AC000026F04D010EA5C0F08BF0020704710B509
:101AD000FFF714FF40DFF63E81F000407047000042
:101AE000001B000800000020340000006C0100080A
:101AF000341B0008340000202C0700008801000877
:101B000000A24A04000000000000000001020304DB
:101B100006070809000000000000000000000000A7
:101B2000000001020304010203040607080902047D
:041B300006080000A3
:04000005080001CD21
:00000001FF
